:020000040800F2
:10000000B80E002045010008D9330008D5260008A5
:10001000DD2F0008B507000871430008000000004C
:100020000000000000000000000000006D3B000820
:100030009D09000800000000653900086F3B0008BA
:100040005F0100085F0100085F0100085F01000810
:100050005F0100085F0100085F0100085F01000800
:100060005F0100085F0100085F0100085F010008F0
:100070005F0100085F0100085F0100085F010008E0
:100080005F0100085F0100085F0100085F010008D0
:100090005F0100085F0100085F0100085F010008C0
:1000A0005F010008D53B00085F0100085F01000800
:1000B0005F0100085F0100085F0100085F010008A0
:1000C0005F0100085F0100085F0100085F01000890
:1000D000513B0008054200085F0100085D4200082E
:1000E0005F0100085F0100085F0100085F01000870
:1000F0005F0100085F0100085F0100085F01000860
:100100005F0100085F0100085F0100085F0100084F
:100110009D3F00085F0100085F0100085F010008C3
:100120005F0100085F0100085F0100085F0100082F
:10013000DFF80CD000F0ECFA00480047B9440008A2
:10014000B80E00200648804706480047FEE7FEE755
:10015000FEE7FEE7FEE7FEE7FEE7FEE7FEE7FEE777
:10016000D13B000831010008202A04DB203A21FAA3
:1001700002F00021704721FA02F3D040C2F12002C0
:100180009140084319467047D2B201E000F8012BB4
:10019000491EFBD270470022F6E710B513460A4607
:1001A00004461946FFF7F0FF204610BDF0B480EA80
:1001B0000102D40F4200B2EB410F02D202460846C0
:1001C00011464A0042D0C30DDDB2C1F3C752AD1A89
:1001D000202D35DAC1F3160141F4000204B1524278
:1001E000C5F1200602FA06F12A411044B3EBD05FB4
:1001F00023D0C4B1012DA0EBC35009DCF0BC4FF0FB
:10020000004202EAC352DBB200F5000000F0F5B98B
:10021000400000F1807000EBC350A0F1807040EA14
:10022000D170490009E0490841EAC071A0EBC35010
:1002300000F50000400800EBC350F0BC00F0D4B95A
:100240006142012202EB4101001BF6E7F0BC70475E
:1002500081F00041AAE780F00040A7E780EA0102B0
:1002600010B502F00043400022D04A001FD0010E1A
:1002700001EB1261C0F35600C2F3560240F40000D5
:1002800042F40002A0FB022000047F39140400D0D5
:10029000401C50EA124001D44000491EC2B20C0674
:1002A00004EBD010401C4008802A02D003E000205C
:1002B00010BD20F00100002900DA0020184310BD15
:1002C00030B480EA010202F0004530F0004221F033
:1002D000004013D090B1C30DD40DC2F31601C0F38A
:1002E0001600E41A41F4000140F400027D3491420A
:1002F00001D3641C00E04900002C02DA30BC00206D
:1003000070474FF400000023914201D3891A034340
:1003100040084FEA4101F7D151B1914202D14FF06B
:10032000004105E002D24FF0010101E06FF0010150
:1003300003EBC450284430BC00F056B9420005D04D
:10034000C0F3C7525242914201DC0020704700EBDB
:10035000C15070472DE9FE4F81EA030404F00044C8
:1003600021F0004100944FF0000B23F0004350EACD
:1003700001045ED052EA03045BD0C3F30A54C1F314
:100380000A552C44A4F2F3340194A0FB0254C1F3A7
:10039000130141F48011C3F3130343F4801301FBF1
:1003A000024400FB034E840A970A44EA815447EA58
:1003B0008357A4FB076802958D0A05FB07854FEA62
:1003C000932C04FB0C542705029D4FEA065847EA7C
:1003D0001637B5EB08056EEB070C870E920E47EA51
:1003E000811742EA8312A7FB0201B6EB0B0164EB13
:1003F00000042B0D43EA0C335E1844EB1C50DA4624
:100400005146E7FB0201C5F313044FEA0B3343EAFD
:1004100014534FEA0432019C43EA0603A4F10C048E
:100420000294009CCDE900B400F024F903B0BDE8CB
:10043000F08F00200146F9E72DE9F04D81EA030431
:1004400004F0004B21F0004514464FF0000A23F061
:10045000004150EA050220D054EA01021DD0C5F344
:100460000A570246C5F31303C1F31300C1F30A563A
:1004700040F4801543F48013A7EB0608101BD64602
:1004800008F2FD3873EB050002D308F1010801E022
:1004900092185B41B8F1000F03DA00200146BDE875
:1004A000F08D00204FF48011064684460EE0171BA5
:1004B00073EB050705D3121B63EB050306434CEAF8
:1004C000010C49084FEA300092185B4150EA0107DD
:1004D000EDD152EA030012D082EA040083EA05015A
:1004E000084305D0101BAB4106D20122002306E0D1
:1004F00000224FF0004302E06FF0010253101AEBAC
:1005000006004CEB085110EB0A0041EB0B01BDE873
:10051000F04D00F0A0B8C10F80EAE0700844CA07AF
:100520009623002100F069B896230022114600F0BE
:1005300064B80EB540F2334102910021CDE90011BB
:100540000A460B4600F096F803B000BD00F00042EA
:1005500020F00040C10DC0F3160040F400007F29D8
:1005600001DA00207047962903DCC1F19601C840EA
:1005700001E096398840002AF4D040427047C1F328
:100580000A5210B5C1F3130140F2FF3341F4801158
:100590009A4201DA002010BD40F233439A42A2F29F
:1005A000334203DC5242FFF7DFFD10BD904010BD27
:1005B00001F0004330B421F0004150EA010206D0BE
:1005C0000A0DA2F56072C1F31301002A02DC30BCEF
:1005D00000207047440F44EAC104C100E01830BC59
:1005E00000EBC250AFF300800029A8BF7047401C49
:1005F000490008BF20F00100704710B4B0FA80FC39
:1006000000FA0CF050EA010404BF10BC704749B175
:10061000CCF1200421FA04F411FA0CF118BF0121E5
:1006200021430843A3EB0C01CB1D4FEA00614FEAC5
:10063000102042BF002010BC704700EBC350104494
:100640000029A4BF10BC7047401C490008BF20F01F
:10065000010010BC704710B5141E73F1000408DAD5
:10066000401C41F1000192185B411A4301D120F076
:10067000010010BD2DE9F04D92469B4611B1B1FA33
:1006800081F202E0B0FA80F22032904600F052F897
:1006900004460F4640EA0A0041EA0B0153465A4617
:1006A000084313D0114653EA010019D0C8F14002A3
:1006B0005046FFF759FD05460E46504659464246FC
:1006C00000F038F8084305D0012004E02046394600
:1006D000BDE8F08D0020054346EAE0762C43374321
:1006E0000A986305E40AA0EB08000022FD0A44EA28
:1006F00047540A3002D500200146E9E701051019E8
:100700006941DDE9084500196941BDE8F04DA2E7FE
:10071000064C074D06E0E06840F0010394E807004E
:1007200098471034AC42F6D3FFF706FDD8500008C6
:10073000F8500008202A04DB203A00FA02F10020D9
:1007400070479140C2F1200320FA03F3194390400F
:10075000704700000EB54FF47A730092CDE9011393
:1007600002460223A121024800F0C0FB0EBD00009A
:100770005C0200200EB54FF47A730092CDE90113AC
:1007800002460223A021024800F0DEFC0EBD00005C
:100790005C020020024900200968C863704700001D
:1007A0009803002002491E200968C86370470000B2
:1007B00098030020FEE700002DE9F041064600689E
:1007C00040780025384F394C01281BD13878C007B4
:1007D0001DD0FFF7DFFF306880682168884203D1B1
:1007E00025603878401C38702068401C20603068D4
:1007F000007B3978884205D1FFF7CCFF306845701F
:100800003D70256070684078012805D020E0FFF732
:10081000C9FF30684068E0E73878C0073AD0FFF792
:10082000B9FF706880682168884203D125603878F4
:10083000401C38702068401C20607068007B39784C
:10084000884205D1FFF7A6FF706845703D702560AE
:10085000B068407801281BD13878C0071FD0FFF757
:1008600099FFB06880682168884203D12560387894
:10087000401C38702068401C2060B068007B3978CC
:10088000884205D1FFF786FFB06845703D7025604E
:10089000BDE8F081FFF786FF70684068C3E7FFF7A7
:1008A00081FFB0684068DEE78C00002090000020E7
:1008B00000B5FFF76FFF0020064A014652F82030CE
:1008C0005970401C0328F9DB024808384160017068
:1008D00000BD000094000020024800214172017216
:1008E00070470000000000202B4A10B529491378FA
:1008F000C8545B1CD8B210700C780023552C47D11B
:100900000B2846D3487850380A2841D2DFE800F057
:10091000050B11171D23292F353B51F8020F50628B
:100920004868906234E051F8020FD0624868106362
:100930002EE051F8020F50634868906328E051F8A8
:10094000020FD0634868106422E051F8020F50642F
:10095000486890641CE051F8020FD0644868106544
:1009600016E051F8020F50654868906510E051F8A4
:10097000020FD065486810660AE051F8020F506611
:100980004868906604E051F8020FD0664868106726
:10099000137010BD6201002018000020704772B66D
:1009A000FEE700000148407A704700000000002088
:1009B000004870474E01002010B590F82110002229
:1009C000022905D00421816380F82020012010BD78
:1009D00001680B6823F00E030B6001680B6823F0BD
:1009E00001030B6090F84030C46B012101FA03F35E
:1009F000636080F8211080F82020104610BD0000B0
:100A00002DE9F05F90F821100024022903D0042181
:100A10008163012485E001680A6822F00E020A6001
:100A200001680A6822F001020A603F4E3E4FB2158B
:100A3000DFF8F4C0DFF8F090DFF8ECA0DFF8E8B002
:100A4000DFF8E4E00168783F13011502ACF1640CB3
:100A5000A9F15009AAF13C0AABF1280BAEF1140E32
:100A60004FF48018B14227D9B9420ED0614512D057
:100A700049451DD0514518D0594518D0714501D16F
:100A8000424615E0294EB14201D1012210E0274E25
:100A90001436B14201D110220AE0244E2836B14268
:100AA00006D0224A3C32914201D11A4600E02A4641
:100AB0001E49091F0A602BE0B94213D0614517D0C7
:100AC000494522D051451DD059451DD0714501D110
:100AD00042461AE0B14202D14FF0807215E0134E47
:100AE000B14201D1012210E0104E1436B14201D1C1
:100AF00010220AE00D4E2836B14206D00B4A3C3295
:100B0000914201D11A4600E02A46074980394A60DD
:100B1000012180F82110002180F82010416B01B1E3
:100B200088472046BDE8F09F80000240080402404C
:100B300070B5044600F010F90546601C02D0044868
:100B40000078044400F008F9401BA042FAD370BDBD
:100B5000180100202DE9F84FDFF8C8910024A9F111
:100B6000040B23460F2709F1040AABF1040ED1E070
:100B70000125A54006EA0502AA4276D1DFF8A8C100
:100B80004E68A6EB0C0866452BD00DDC032E34D046
:100B900005DC36B3012E19D0022E2FD11BE0112E09
:100BA00016D0122E2AD119E0B8F5881F19D006DC0C
:100BB000B8F5803F15D0B8F5801F1FD111E0B8F50A
:100BC000001F0ED0B8F5041F18D10AE0CB6815E05D
:100BD000CB681B1D12E0CB6808330FE0CB680C33E9
:100BE0000CE08B682BB1012B4FF0080303D045615B
:100BF00004E0042302E0056100E00023FF2A01D89D
:100C0000064601E000F104064FEA840501D9A5F18A
:100C10002005D6F8008007FA05FC28EA0C0803FA3C
:100C200005F548EA0508C6F800804D68ED0070D566
:100C30003E4DAE6946F00106AE61AD6924F0030693
:100C400005F0010500953A4D06EB050CDCF808505F
:100C5000A607360F07FA06F825EA0805DFF8D4805C
:100C6000404503D14FF0000825E052E0DFF8C8808E
:100C7000404502D14FF001081DE0DFF8C08040453B
:100C800002D14FF0020816E0DFF8B480404502D1EF
:100C90004FF003080FE0DFF8AC80404502D14FF081
:100CA000040808E0DFF8A080404502D14FF00508B5
:100CB00001E04FF0060808FA06F848EA0508CCF803
:100CC00008804D68D9F80060ED024D4601D5164305
:100CD00000E096432E604D68DAF80060AD0255469C
:100CE00001D5164300E096432E604D68DBF80060A6
:100CF000AD035D4601D5164300E096432E604D6876
:100D0000DEF80060ED03754601D5164300E096431A
:100D10002E60641C0A681646E2407FF429AFBDE8E5
:100D2000F88F00000804014000001110001002407C
:100D30000000014000080140000C0140001001408B
:100D40000014014000180140001C01400AB101617B
:100D500070470904FBE70000014880687047000005
:100D60001801002070B5040025D094F83D0000253E
:100D700020B984F83C50204600F07EFA242084F804
:100D80003D002068016821F00101016020680168D0
:100D900041F4004101602068016821F400410160D4
:100DA00000F0CAFB4D4A6168914201D84C4900E00D
:100DB0004C49884201D2012070BD4B492368B0FBE9
:100DC000F1F15E6826F03F060E435E606368934271
:100DD00006D94FF4967359434FF47A73B1FBF3F18C
:100DE0002368491C1E6A26F03F0631431962616878
:100DF000914210D84900401EB0FBF1F2521CC2F3E0
:100E00000B02042A01D2042022E0B0FBF1F0401CC6
:100E1000C0F30B001CE0A268F2B301EBC10303EBCB
:100E20000116431EB3FBF6F35B1C43F480431B0522
:100E300049D092B301EBC10202EB0111401EB0FB9D
:100E4000F1F0401CC0F30B0040F4804040F400403F
:100E50002168CA694CF6FF739A431043C861D4E90C
:100E6000071001432068026822F0C00211430160AC
:100E7000D4E9030101432068826848F2FF339A43B2
:100E800011438160D4E9050108432168CA6822F052
:100E9000FF021043C86001E00EE016E02068016820
:100EA00041F0010101602564202084F83D002563A4
:100EB00084F83E50002070BD01EB4106431EB3FB99
:100EC000F6F35B1CB3E70120C2E701EB4101401ED2
:100ED000B0FBF1F0401CC0F30B00B7E7A0860100A7
:100EE00080841E0000093D0040420F002DE9FF4FA5
:100EF00083B00025DDE910799A4693460446DDF873
:100F000048800095FFF728FF064694F83D0020280A
:100F10007CD11923012288492046009601F0F0FC7B
:100F20000028F5D194F83C0001286FD0012084F806
:100F30003C0020680168C90703D1016841F0010144
:100F400001602068016821F400610160222084F8BA
:100F50003D00402084F83E0025646762A4F82A9092
:100F6000608D20857548E062CDE9008653465A467B
:100F70002046049901F0C6FB00287CD1208DDFF8C3
:100F8000C091202768B1012814D002282068016888
:100F90001ED041F480610160206841698069009041
:100FA000BCE02068416981690091016841F40071E9
:100FB0000160B3E02068016821F48061016072B6CD
:100FC0002068416981690091016841F400710AE07B
:100FD00041F40061016072B6206841698169009145
:100FE000016821F48061016062B697E0032865D84A
:100FF00001280CD0022843464FF000024946204603
:1010000000960BD001F07CFCA8BB0CE091E03246CE
:101010004146204601F01AFD68BB72E001F070FC09
:1010200048BB72B633E02068016821F4806101603A
:1010300072B620680069616A0870606A401C60626C
:10104000208D401E2085608D401E60853D4846F203
:10105000A8110068B0FBF1F0C0EBC00000EB80000D
:101060000090401E009007D020684069C0434007B0
:101070000DD50098F5E727E044F8305F6773A57356
:10108000206940F02000206162B625731CE02068D2
:10109000016841F40071016020680069616A0870AC
:1010A000606A401C6062218D491E2185618D491E48
:1010B000618562B621680969017026E032464146C1
:1010C000204601F0C3FC18B1012007B0BDE8F08F45
:1010D00020680069616A0870606A401C6062208D47
:1010E000401E81B22185608D401E60852068426966
:1010F000D243520712D4032903D1016821F480613D
:10110000016020680069616A0870606A401C606262
:10111000208D401E2085608D401E6085208D00281A
:101120007FF464AF84F83D7084F83E5084F83C50FE
:10113000CBE70220C9E70000020010000000FFFF1B
:1011400004000100240100202DE9FF4F83B09A46DE
:10115000DDE9119793460446DDF84080FFF7FCFD7A
:10116000054694F83D0020287FD1192301224049EB
:101170002046009501F0C4FB002876D194F83C008D
:10118000012872D0012084F83C0020680168C9075A
:1011900003D1016841F0010101602068016821F478
:1011A00000610160212084F83D00402084F83E0069
:1011B00000262664C4F82480A4F82A90608D208537
:1011C0002C48E062CDE9007553465A462046049902
:1011D00001F016FB70B930E02A463946204601F08E
:1011E0006DFC58B1206C042804D12068016841F4DA
:1011F00000710160012007B0BDE8F08F606A2168CE
:1012000000780861606A401C6062218D491E89B2C5
:101210002185628D521E628522685369DB435B071C
:101220000BD469B100781061606A401C6062208D47
:10123000401E2085608D401E6085208D0028CBD10A
:101240002A463946204601F02FFB0028CAD154F81F
:101250003D0B016841F400710160202004F81E0973
:10126000E67766770020C6E7FFE70220C3E70000C5
:10127000020010000000FFFF10B586B000210091B1
:1012800001910291039100680F4988421AD10F4CD5
:10129000A06940F00800A061A069694600F008005C
:1012A0000490C02000901220019003200390084871
:1012B000FFF750FCE06940F40010E061E06900F4E1
:1012C0000010049006B010BD005400400010024011
:1012D000000C014002488168027811448160704727
:1012E00018010020074810B5016841F010010160A5
:1012F000032000F079F80F2000F006F800F024F841
:10130000002010BD0020024070B50D4D04464FF482
:101310007A712878B1FBF0F00A490968B1FBF0F066
:1013200000F0ECFB48B9102C07D200222146501ED9
:1013300000F03AF800206C6070BD012070BD000024
:1013400018010020240100200E4808B5816941F0F1
:1013500001018161816901F001010091C16941F0E0
:101360008051C161C06900F080500090052000F0FC
:101370003BF80548416821F0E06141F000714160AF
:1013800008BD00000010024000000140002809DBF9
:1013900000F01F02012191404009800000F1E0208F
:1013A000C0F8001170470000F0B40E4B1B680C46EB
:1013B000C3F30223C3F10705042D00D90425191D29
:1013C000072901D2002300E0DB1E012606FA05F101
:1013D000491E214099409E40761E16403143F0BC84
:1013E00002F0ECBF0CED00E0064900F007020868CF
:1013F0004FF6FF03184040EA0220034A10430860FA
:10140000704700000CED00E00000FA052DE9F04700
:101410000F46050061D0434E306800F00700B84227
:1014200009D2306820F0070038433060306800F09F
:101430000700B84251D128683B4C810712D54007BC
:1014400003D5606840F4E06060602878000703D549
:10145000606840F4605060606068A96820F0F00047
:10146000084360602878C00728D06868012810D039
:101470002168022810D0890700292EDA616821F03E
:10148000030101436160FFF767FC804641F2883940
:101490000DE021688903EFE78901EDE7FFF75CFCC8
:1014A000A0EB0801494502D90320BDE8F087606838
:1014B000696800F00C00B0EB810FEFD1306800F0EC
:1014C0000700B8420BD9306820F00700384330607D
:1014D000306800F00700B84201D00120E5E7287825
:1014E000400705D56068E96820F4E0600843606063
:1014F0002878000706D56068296920F4605040EA22
:10150000C100606000F038F86168084AC1F3031157
:10151000515CC8400649086006480068FFF7F4FEC1
:101520000020C2E70020024000100240BE50000828
:10153000240100201C010020044805490068496876
:10154000044AC1F30221515CC840704724010020C5
:1015500000100240CE500008044805490068496860
:10156000044AC1F3C221515CC840704724010020E5
:1015700000100240CE5000080E4A51680E4801F09B
:101580000C03042B11D0082B0FD10C48C1F383435B
:10159000C903C05C0AD55168084AC1F34041921E94
:1015A000515C054A5043B0FBF1F070470449484391
:1015B000704700000010024000127A00AE50000890
:1015C00000093D002DE9F84F040070D02078C04D8F
:1015D000C00749D06868C0F38100012807D0686857
:1015E000C0F38100022809D16868C00306D52868C5
:1015F000800339D560680028E7D035E06068B0F531
:10160000803F0BD010B1B0F5A02F11D0286820F486
:1016100080302860286820F4802002E0286840F4A8
:1016200080302860606890B1FFF796FB06460AE0BC
:10163000286840F480202860F0E700BFFFF78CFBAB
:10164000801B642873D828688003F7D50CE0FFF767
:1016500083FB064605E000BFFFF77EFB801B642886
:10166000F0D828688003F7D420789A4E80074FF08E
:1016700001094FF0000839D5686810F00C0F07D049
:101680006868C0F38100022809D16868C00306D4E5
:101690002868800714D52069012808D110E0206946
:1016A000B0B1C6F80090FFF757FB074605E00AE126
:1016B000FFF752FBC01B0228C4D828688007F7D563
:1016C0002868616920F0F80040EAC10028600DE058
:1016D000C6F80080FFF740FB074604E0FFF73CFB3D
:1016E000C01B022823D828688007F7D42078000779
:1016F0002CD57948A169D9B1C0F80090FFF72CFB2F
:10170000074604E0FFF728FBC01B02280FD8686AD1
:101710008007F7D571484FF4FA510068B0FBF1F03B
:10172000009000BF0098411E0091FAD20EE080E0C8
:10173000C0F80080FFF710FB074604E0FFF70CFB42
:10174000C01B022875D8686A8007F7D42078400744
:1017500060D5E8690027C00008D4E86940F08050EF
:10176000E861E869012700F0805000905C4801685A
:10177000C90513D40168834641F480710160FFF705
:10178000EBFA824606E000BFFFF7E6FAA0EB0A009C
:1017900064284ED8DBF80000C005F5D5E0680128C4
:1017A0000AD008B1052813D0286A20F00100286269
:1017B000286A20F0040002E0286A40F00100286254
:1017C000E06841F2883B98B1FFF7C6FA82460BE029
:1017D000286A40F004002862EEE700BFFFF7BCFA79
:1017E000A0EB0A0159455AD8286A8007F6D50CE0C3
:1017F000FFF7B2FA824605E0FFF7AEFAA0EB0A0166
:1018000059454CD8286A8007F6D41FB1E86920F002
:101810008050E861E06988B36968C1F381010229F9
:1018200044D00228C6F8608004D0FFF795FA044639
:1018300038E034E0FFF790FA074604E0FFF78CFA4F
:10184000C01B02282BD828688001F7D4206AB0F585
:10185000803F05D16868A16820F4003008436860C3
:10186000D4E908010843696821F4741108436860E9
:10187000C6F86090FFF770FA044606E025E000BF66
:10188000FFF76AFA001B022809D828688001F7D5FB
:101890001BE000BFFFF760FA001B022802D90320FB
:1018A000BDE8F88F28688001F4D40EE00128F7D055
:1018B0006868226A00F48031914204D1616A00F4C0
:1018C0007010884201D00120EAE70020E8E700001C
:1018D00000100240000042428004424224010020E5
:1018E000007000407047000038B504460068426848
:1018F0008168C9434B0606D5CB0704D1D3435B06A9
:1019000001D4216C05E08B0708D4D3431B0605D412
:10191000616C01B02046BDE8304008478B0601D518
:101920004B0646D4D3439B0643D44B060AD494F8C3
:101930005130032B3ED0636D43F004036365C368ED
:1019400083680093890609D4616D41F001016165E6
:1019500081680091016821F040010160606D0028FC
:1019600027D02068416821F0E0014160012084F81F
:101970005100900722D02068416821F003014160A6
:10198000104DE06C40B14563E06CFFF739F818B1D9
:10199000606D40F040006065A06C002809D0456390
:1019A000A06CFFF72DF8002803D0606D40F04000D8
:1019B000606538BDC1688068009038BD2046FFF77B
:1019C00091FF38BD5D3B000870B5040009D0606A26
:1019D000002540B125616561A56294F8510040B1D0
:1019E0000CE0012070BD6068B0F5827FF4D0E56145
:1019F000F2E784F85050204600F040F8022084F8C6
:101A000051002068016821F040010160A08821890F
:101A100000F4827001F404410843A18901F40061DB
:101A20000843217C01F002010843217D01F00101FE
:101A30000843218B01F400710843217F01F0380134
:101A4000084394F8201001F080010843218D01F42F
:101A50000051084321680860A069042101EA104090
:101A6000216848602068C16921F40061C161656531
:101A7000012084F85100002070BD000010B586B030
:101A80000021009101910291039100681849884258
:101A90002BD11848C16941F48041C161C16901F489
:101AA00080410491816941F0080181618069124C93
:101AB00000F0080004904FF4304000906946204642
:101AC000FFF748F84FF48040009002200190032077
:101AD000039069462046FFF73DF8032201212420A8
:101AE000FFF762FC2420FFF751FC06B010BD000098
:101AF0000038004000100240000C014010B5401EAC
:101B0000B0F1807F01D3012010BD4FF0E02460616F
:101B10000F21601702F052FC0020A0610720206115
:101B2000002010BD7047704770B590F83C20012A26
:101B30002CD0012480F83C40022280F83D2003682C
:101B40005A689D6822F070060A6832435A60104B4A
:101B500002689A420ED00F4B9A420BD0B2F1804FDE
:101B600008D00D4B9A4205D00C4B9A4202D00C4B38
:101B70009A4204D1496825F080031943916080F8A6
:101B80003D40002180F83C10084670BD022070BD29
:101B9000002C0140003401400004004000080040D7
:101BA000000C004090F83D00704710B5040003D0D1
:101BB00094F83D0010B107E0012010BD002084F82A
:101BC0003C00204600F01EF8022084F83D00211D54
:101BD000206802F06BF8012084F8460084F83E008B
:101BE00084F83F0084F8400084F8410084F8420003
:101BF00084F8430084F8440084F8450084F83D00EC
:101C0000002010BD08B51C4A01681C48914211D142
:101C1000816941F4006181618069032200F4006000
:101C2000009002211920FFF7BFFBBDE808401920F2
:101C3000FFF7ACBB124A914207D1C16941F00201E2
:101C4000C161C06900F0020009E00E4A914208D16A
:101C5000C16941F00401C161C06900F00400009055
:101C600008BD094A9142FBD1C16941F00801C16137
:101C7000C06900F00800F2E7002C014000100240AB
:101C80000004004000080040000C004090F83D10A7
:101C9000012901D001207047022180F83D10016820
:101CA000CA6842F00102CA6000680E4988420ED03C
:101CB0000D4988420BD0B0F1804F08D00B498842C3
:101CC00005D00B49884202D00A49884204D1816874
:101CD00001F00701062903D0016841F0010101600C
:101CE00000207047002C01400034014000040040F7
:101CF00000080040000C004001680A6A41F211131C
:101D00001A4207D10A6A9B101A4203D10A6822F0CC
:101D100001020A60012180F83D100020704701682F
:101D2000CA6822F00102CA6001680A6A41F211130E
:101D30001A4207D10A6A9B101A4203D10A6822F09C
:101D400001020A60012180F83D100020704770B543
:101D5000044690F83C000025012817D0012684F89D
:101D60003C60022084F83D002068826822F07702FF
:101D700022F47F4282600868502838D00DDC202889
:101D80004FD005DC90B3102811D14AE0022070BD7D
:101D9000302846D040280AD13BE060282FD0702858
:101DA0000DD0B0F5805F03D0B0F5005F12D00125F3
:101DB00084F83D60002084F83C00284670BDCB6864
:101DC000D1E90121206801F0CCFF2068816841F051
:101DD000770109E0CB68D1E90121206801F0C1FF5A
:101DE0002068816841F480418160E1E719E0CA68B8
:101DF0004968206802F08AF85021206806E0CA6825
:101E00004968206802F093F86021206801F0B3FF70
:101E1000CEE7CA684968206802F078F84021206857
:101E2000F4E7226801461046F0E770472DE9F041DB
:101E300004460068C66805694FF00007A90713D576
:101E4000B10711D5F91E0161012020772068806952
:101E50008007204602D0FFF7E8FF04E000F0DAF840
:101E6000204600F06CF92777680716D5700714D55F
:101E700021686FF0040008610220207720688069E3
:101E800010F4407F204602D0FFF7CFFF04E000F0BF
:101E9000C1F8204600F053F92777280715D53007F9
:101EA00013D521686FF008000861042020772068AE
:101EB000C0698007204602D0FFF7B7FF04E000F0BA
:101EC000A9F8204600F03BF92777E80616D5F0067A
:101ED00014D521686FF01000086108202077206871
:101EE000C06910F4407F204602D0FFF79EFF04E057
:101EF00000F090F8204600F022F92777E80708D094
:101F0000F00706D021686FF001000861204600F05C
:101F100087F9280608D5300606D521686FF08000BD
:101F200008612046FFF7FEFD680608D5700606D555
:101F300021686FF040000861204600F072F9A806A1
:101F40000AD5B00608D521686FF020000861204648
:101F5000BDE8F041FFF7E7BDBDE8F08130B585B0E1
:101F6000002100910191029103910068234B2449C3
:101F70000224244A244D984219D1886940F0040073
:101F80008861886900F004000490886940F00800C6
:101F900088618869694600F008000490C020CDE996
:101FA000000410460394FEF7D5FD03200BE0174B09
:101FB000984211D1886940F008008861886900F072
:101FC000080004909815CDE900046946284603945A
:101FD000FEF7C0FD05B030BD0D4B9842FAD18869BF
:101FE00040F0040088618869694600F004000490AC
:101FF0000F20CDE9000410460394E9E700040040F7
:102000000010024000080140000C014000080040A0
:10201000000C0040704770B5044690F83C00002664
:102020000D4601280FD0012084F83C006AB1042A33
:102030001DD0082A2FD00C2A3FD00126002084F87A
:102040003C00304670BD022070BD206801F09CFE4F
:102050002068816941F0080181612068816921F06F
:1020600004018161206881692A69114311E02068B7
:1020700001F0BAFE2068816941F400618161206845
:10208000816921F480618161206881692A6941EA5E
:1020900002218161D2E7206801F0DCFE2068C1697D
:1020A00041F00801C1612068C16921F00401C161EA
:1020B0002068C1692A69114311E0206801F0FEFE21
:1020C0002068C16941F40061C1612068C16921F4DF
:1020D0008061C1612068C1692A6941EA0221C16148
:1020E000ACE710B5040003D094F83D0010B107E050
:1020F000012010BD002084F83C00204600F01EF8AE
:10210000022084F83D00211D206801F0CFFD012050
:1021100084F8460084F83E0084F83F0084F84000CC
:1021200084F8410084F8420084F8430084F84400B5
:1021300084F8450084F83D00002010BD70477047CA
:1021400030B500250446022249B1042912D00829DD
:1021500046D094F8410001284DD0012030BD94F8BC
:102160003E000128F9D184F83E202068C26842F080
:10217000020209E094F83F000128EED184F83F20E4
:102180002068C26842F00402C2600122206801F0A7
:10219000DBFD1E4920681E4A884201D0904203D1CF
:1021A000436C43F400434364206888420DD090425E
:1021B0000BD0B0F1804F08D01649884205D016499F
:1021C000884202D01549884204D1816801F0070194
:1021D000062903D0016841F001010160284630BDA5
:1021E00094F840000128B8D184F840202068C268E3
:1021F00042F00802C8E784F841200C2901D00125EB
:10220000ECE72068C26842F01002BDE7002C0140F4
:10221000003401400004004000080040000C004071
:102220007047704770477047F8B501680446086802
:10223000CA684B6910F00F0F4FF0000559D003F03A
:10224000010602F49077374365D0C10705D0D10568
:1022500003D5616C41F001016164410705D5D907DF
:1022600003D0616C41F002016164810705D5D90793
:1022700003D0616C41F004016164010707D502F0ED
:102280002001314303D0616C41F008016164616C4D
:1022900000293AD0800604D5900602D5204601F0E8
:1022A000D8FE20684069616CC0F38010090700D433
:1022B00060B3204601F0A6FE20684069400621D5A3
:1022C0002068143050E8001F21F0400140E800125F
:1022D000002AF5D1E06BA8B16D494163E06BFEF7D0
:1022E0008FFB002811D0E06B416B01B0BDE8F040DE
:1022F000084783060FD593060DD52046BDE8F84064
:1023000001F0A7BE2046FFF78EFFF8BD2046FFF77D
:102310008AFF6564F8BD266B2023012E7CD1C6069A
:102320007AD5D60678D508684868009048694FF095
:102330000206400640D5E16B086840680004000CC6
:10234000E8D0A28D8242E5D9E085886920282DD089
:1023500020680C3050E8001F21F4807140E8001222
:10236000002AF5D12068143050E8001F21F0010147
:1023700040E80012002AF5D12068143050E8001F10
:1023800021F0400140E80012002AF5D184F84230E3
:10239000256320680C3050E8001F21F0100140E850
:1023A0000012002AF5D1E06BFEF706FB6663A08DF4
:1023B000E18D401A81B22AE0A08DE18D401A81B2F0
:1023C000E08D0028A6D00029A4D022680C3252E863
:1023D000000F20F4907042E80007002FF5D120682C
:1023E000143050E8002F22F0010240E80027002FAF
:1023F000F5D184F84230256320680C3050E8002F76
:1024000022F0100240E80023002BF5D1666320463D
:10241000FFF708FFF8BDFFE705062BD5150629D500
:1024200094F841002128F5D1A068B0F5805F01D172
:102430002069B0B1206A411C21622168007848609F
:10244000E08C401E0004000CE084E3D12068C168E9
:1024500021F08001C1602068C16841F04001C16085
:10246000D8E7206A0088C0F308004860206A801C12
:102470002062E5E74006CDD55006CBD5CA68204698
:1024800022F04002CA6084F8413000F022F9C1E72E
:10249000F53F000870B5040004D094F84100002511
:1024A00010B106E0012070BD84F84050204600F0D5
:1024B00023F8242084F841002068C16821F40051E9
:1024C000C160204601F026FE2068016921F4904198
:1024D00001612068416921F02A0141612068C168D9
:1024E00041F40051C1606564202084F8410084F803
:1024F00042006563002070BDF0B585B000240094F3
:1025000001940294039403684248414F0515022147
:102510000322C614BB4225D1C36943F40023C3611F
:10252000C36903F400230493836943F010038361B8
:102530008069CDE9005100F01000CDE90320364D4F
:1025400069462846FEF706FBCDE900646946284641
:102550000294FEF7FFFA032201213420FEF724FF44
:10256000342028E02D4FBB4229D1836943F48043B6
:102570008361836903F480430493836943F0040314
:1025800083618069264E00F0040004907815CDE93F
:102590000001039269463046FEF7DCFACDE90054AB
:1025A000694630460294FEF7D5FA03220121252020
:1025B000FEF7FAFE2520FEF7E9FE05B0F0BD194F43
:1025C000BB42FAD1C36943F48023C361C36903F4F6
:1025D00080230493836943F0080383618069CDE914
:1025E000005100F00800CDE903200F4D6946284650
:1025F000FEF7B0FACDE90064694628460294FEF77A
:10260000A9FA032201212720FEF7CEFE2720D2E7D8
:10261000004C004000100240001001400038014012
:102620000008014000480040000C014090F8423092
:10263000202B01D00220704721B11AB1002303637F
:1026400001F0C4BD0120704710B5044600680E4972
:10265000884208D10D48007801F02CFE01220B4978
:102660000B48FFF7E3FF0B49206888420AD10A486C
:102670000078FEF739F9BDE8104001220649074805
:10268000FFF7D4BF10BD000000380140D600002085
:102690007007002000480040D7000020B807002045
:1026A00090F84130202B01D00220704779B172B1EF
:1026B00001628284C28400214164212180F841109A
:1026C0000068C16841F08001C160002070470120AE
:1026D00070477047FEE701684A69D24352050FD43C
:1026E0006FF480624A61002140F8301F202242735B
:1026F0008173026942F00402026101730120704794
:10270000002070472DE9F84F0446006889460B9D6C
:1027100001689846174641F48061016020680168AD
:1027200041F48071016000954FF0011B0022594671
:1027300020460A9B00F0E4F84FF4007A40B120688C
:102740000068C00501D5C4F840A00320BDE8F88F9B
:10275000216809F0FE0008612B46284920460A9AA4
:1027600000F016F9F0BB20684169806900902A46A4
:1027700020460A9900F0A2F940B1206C04283AD111
:102780002068016841F40071016034E0FEB2B8F1E4
:10279000010F09D02168380A08612A4620460A99A3
:1027A00000F08CF90028E8D1206806612A4620460E
:1027B0000A9900F083F90028DFD12068016841F40C
:1027C0008071016000950022594620460A9B00F066
:1027D00097F80028B3D1216809F0FF0040F001000C
:1027E000086100E007E02B46044920460A9A00F001
:1027F000CFF80028AAD00120A8E7000002000100BD
:102800002DE9F843044600680D46DDE908970168A4
:102810009846164641F4807101604B4600224FF005
:1028200001112046009700F06BF848B1206800685D
:10283000C00502D54FF4007020640320BDE8F88382
:10284000216805F0FE0008613B464A4615492046CE
:1028500000F09EF888B920684169806900903A4686
:102860004946204600F02AF948B1206C042804D1DA
:102870002068016841F4007101600120DEE7F5B2D3
:10288000B8F1010F09D02168300A08613A4649467B
:10289000204600F013F90028E7D1206805610020E8
:1028A000CCE700000200010070B516460D46044654
:1028B0001EE02046FFF70FFF08B1012070BD681C25
:1028C00016D0FEF749FA801BA84200D885B92068C7
:1028D0004069C04340070BD5002044F8300F202149
:1028E0006173A073216941F0200121612073E4E745
:1028F00020684069C0434007DBD4002070BD000061
:102900002DE9F047984617460D460446C1F30746A1
:10291000DDF820902AE000BFB8F1FF3F26D0FEF797
:102920001BFAA0EB0901414502D8B8F1000F1DD1F7
:102930002068012E16D0806925EA00000004000CF2
:1029400012D00020B84211D1002044F8300F2021CD
:102950006173A073216941F020012161207301207E
:10296000BDE8F0874069E7E70120EBE72068012E2A
:102970000AD0806925EA00000004000C06D000207F
:10298000B842C9D00020EBE74069F3E70120F7E740
:102990002DE9F047984616460D4604464FF00009CB
:1029A0004FF0200AC1F3074723E020684069C04385
:1029B000400515D42068016841F400710160216868
:1029C0006FF480604861C4F8309084F83DA084F8CA
:1029D0003E90216C41F00401216484F83C9021E098
:1029E000701C06D0FEF7B8F9A0EB0800B04203D87F
:1029F00016B1012F1FD021E02068012F15D080696A
:102A000025EA00000004000C18D000BF44F8309FF5
:102A100084F80DA084F80E90216941F02001216115
:102A200084F80C900120BDE8F087406925EA000099
:102A30000004000CEAD12068406901E02068806948
:102A400025EA00000004000CAFD1ECE72DE9F041CD
:102A5000002590460E460446202728E04069C043E2
:102A6000C0060CD454F8301B6FF01000486144F8D5
:102A700010596777A577206A2062257714E0FEF762
:102A80006BF9A0EB0800B04200D886B92068406915
:102A9000C04340060BD544F8305F6773A5732069C7
:102AA00040F02000206125730120BDE8F0812068FE
:102AB0004169C9434906D1D40020F6E770B51646EE
:102AC0000D4604461EE02046FFF705FE08B1012032
:102AD00070BD681C16D0FEF73FF9801BA84200D8D5
:102AE00085B920684069C04300060BD5002044F832
:102AF000300F20216173A073216941F02001216111
:102B00002073E4E720684069C0430006DBD400205E
:102B100070BD00000148007A7047000000000020EE
:102B2000012220210148FEF711B90000000C0140EC
:102B3000002220210148FEF709B90000000C0140E5
:102B4000012210210148FEF701B90000000C0140EC
:102B5000002210210148FEF7F9B80000000C0140E6
:102B600000224FF480710148FEF7F0B800180140D0
:102B7000012211020148FEF7E9B8000000180140E7
:102B80002DE9F04186B00024244800940194029479
:102B90000394816941F004018161816901F00401BC
:102BA0000491816941F008018161816901F00801A6
:102BB0000491816941F040018161816901F0400126
:102BC0000491816941F0100181618069144F00F026
:102BD00010004FF4C0750490002229463846FEF7D5
:102BE000B5F8DFF84080012230214046FEF7AEF80C
:102BF0000095032601250396CDE901546946384620
:102C0000FDF7A8FF3020CDE90005CDE90246694671
:102C10004046FDF79FFF06B0BDE8F081001002407E
:102C200000180140000C01400D4810B50B4901602F
:102C30000C49416000214FF480428160C0E90312D9
:102C400041618161C1610162FEF78CF8002803D007
:102C5000BDE81040FDF7A3BE10BD000000540040C9
:102C60005C020020A08601000D4810B50B490160F0
:102C7000002141608160C160016141618161016247
:102C8000416281620A21C162FEF79EFE002803D0E4
:102C9000BDE81040FDF783BE10BD000000380040C5
:102CA000B002002010B586B00024174800940194AB
:102CB00002940394049413490594016041F61F4162
:102CC000C0E901146321C0E9031444618461FEF783
:102CD0006CFF08B1FDF763FE4FF480500090694629
:102CE0000948FFF734F808B1FDF759FE049404A928
:102CF00005480594FEF718FF002801D0FDF74FFEA8
:102D000006B010BD002C01400803002010B58EB0A5
:102D100000240794089409940A940B941C21684693
:102D20000C94FDF738FA2A48284901602321C0E9AC
:102D3000011449F63F41C0E903148461FEF735FFF1
:102D400008B1FDF72CFE4FF48050079007A92048EA
:102D5000FEF7FDFF08B1FDF722FE1D48FFF7C1F9A0
:102D600008B1FDF71CFE0B940BA919480C94FEF753
:102D7000DBFE08B1FDF713FE6020CDE900040294EC
:102D80000022694612480494FFF745F908B1FDF79F
:102D900006FE042269460E48FFF73DF908B1FDF72B
:102DA000FEFD082269460A48FFF735F908B1FDF72C
:102DB000F6FD0C2269460648FFF72DF908B1FDF72C
:102DC000EEFD0348FFF7CAF80EB010BD0004004046
:102DD0005003002010B58EB0002407940894099485
:102DE0000A940B941C2168460C94FDF7D4F91E48F4
:102DF0001C4901604721C0E9011440F28F11C0E96C
:102E000003148461FEF7D1FE08B1FDF7C8FD4FF44D
:102E10008050079007A91448FEF799FF08B1FDF705
:102E2000BEFD1148FFF75DF908B1FDF7B8FD0B9441
:102E30000BA90D480C94FEF777FE08B1FDF7AFFD26
:102E40006020CDE9000402940822694606480494F3
:102E5000FFF7E1F808B1FDF7A2FD0348FFF77EF8A0
:102E60000EB010BD000800409803002010B58EB0D1
:102E700000240794089409940A940B941C21684632
:102E80000C94FDF788F92A48284901602321C0E9FC
:102E9000011449F63F41C0E903148461FEF785FE41
:102EA00008B1FDF77CFD4FF48050079007A920483A
:102EB000FEF74DFF08B1FDF772FD1D48FFF711F950
:102EC00008B1FDF76CFD0B940BA919480C94FEF7A3
:102ED0002BFE08B1FDF763FD6020CDE900040294EC
:102EE0000022694612480494FFF795F808B1FDF7EF
:102EF00056FD042269460E48FFF78DF808B1FDF72C
:102F00004EFD082269460A48FFF785F808B1FDF72B
:102F100046FD0C2269460648FFF77DF808B1FDF72B
:102F20003EFD0348FFF71AF80EB010BD000C00403C
:102F3000E00300200C4810B50A4901604FF4E1316C
:102F40004160002181600C22C160C0E904128161EE
:102F5000C161FFF79FFA002803D0BDE81040FDF7DC
:102F60001EBD10BD004C0040280700200C4810B5C5
:102F70000A4901604FF4E1314160002181600C2277
:102F8000C160C0E904128161C161FFF783FA0028C2
:102F900003D0BDE81040FDF702BD10BD0038014070
:102FA000700700200C4810B50A4901604FF4165113
:102FB0004160002181600C22C160C0E9041281617E
:102FC000C161FFF767FA002803D0BDE81040FDF7A4
:102FD000E6BC10BD00480040B8070020FEE7000036
:102FE0002DE9FE4FD3480021D34CB0F90000002852
:102FF00006DD4FF416720346904206DC1A4604E0E2
:1030000008DACE4A03469042F8DAE281A281628170
:10301000228103E0E181A18161812181E180A180A0
:1030200061802180C64EC74FDFF81CB34FF4617535
:103030000291E8B3B16AB86AFDF70AF98046B4F9BB
:103040000800FDF768FA4146FDF7B0F8FDF77EFA93
:103050002081B86AB16A80F00040FDF7F9F8804637
:10306000B4F90A00FDF757FA4146FDF79FF8FDF75E
:103070006DFA6081B16AB86AFDF798F88046B4F9D4
:103080000C00FDF748FA4146FDF790F8FDF75EFAAF
:10309000A081B96AB06AFDF7DBF80646B4F90E0004
:1030A000FDF739FA3146FDF781F8FDF74FFA6EE08A
:1030B000FFE7B16AB146BA46B86AFDF7C9F80646F5
:1030C000B4F90800FDF727FA3146FDF76FF8FDF770
:1030D0003DFA00B220818046DAF82800D9F828109D
:1030E00080F00040FDF7B4F80646B4F90A00FDF799
:1030F00012FA3146FDF75AF8FDF728FA07B2678150
:10310000D9F82810DAF82800FDF750F80646B4F987
:103110000C00FDF700FA3146FDF748F8FDF716FA06
:1031200006B2A681DAF82810D9F82800FDF790F841
:103130008146B4F90E00FDF7EEF94946FDF736F881
:10314000FDF704FA01B25A46E1814046904501DAA2
:10315000584604E003462846804500DC1846208196
:10316000974201DA174602E0AF4200DD2F46678141
:10317000964201DA164602E0AE4200DD2E461046C7
:10318000A681814203DB2846814200DC0846E081BB
:10319000B4F908105846814201DA594602E0A942C2
:1031A00000DD294621818B46B4F90A10814201DAFB
:1031B000014602E0A94200DD29466181B4F90C1004
:1031C000814201DA014602E0A94200DD2946A181DF
:1031D000B4F90E108246514503DB2846814200DCDB
:1031E0000846E0815948B0F90000FDF794F9064619
:1031F00001905748B0F90000FDF78DF9DFF85491C0
:103200000090D9F82810FDF723F83146FDF720F893
:1032100006460298FDF77FF93146FCF7C7FFFDF738
:1032200095F902B22280DDE900069046D9F828100F
:10323000FCF7BCFF3146FCF7B9FF01460020FCF764
:10324000B5FFFDF783F907B26780DDE90006D9F81D
:103250002810FDF700F83146FCF7FAFF0146002080
:10326000FCF7A4FFFDF772F906B2A6800099D9F821
:10327000280080F00040FCF7EBFF0199FCF796FF77
:1032800001460020FCF792FFFDF760F900B25146BD
:10329000E0804246884501DA524604E013462A4659
:1032A000904500DC1A4622808F4201DA0F4602E088
:1032B000AF4200DD2F4667808E4201DA0E4602E003
:1032C000AE4200DD2E46A680884201DA084602E0C2
:1032D000A84200DD2846E0805946052000F058F855
:1032E0006089404201B2062000F052F8A0894042B5
:1032F00001B2072000F04CF8B4F90E10082000F0DD
:1033000047F82088404201B2012000F041F860886F
:10331000404201B2022000F03BF8B4F9041003204F
:1033200000F036F8B4F9061003B00420BDE8F04F01
:1033300000F02EB80E00002000080020A8FDFFFFBE
:10334000E0080020AC0800207CFCFFFF0C000020FF
:103350000A000020140900200B4940F6B8300A6822
:1033600050630A6890630A68D06309680864074973
:103370000A6850630A6890630A68D0630968086441
:103380004FF4FA60FDF7D4BBE003002050030020A7
:1033900010B50F4B0F4A01F6B8311B6812680928A7
:1033A00007D2DFE800F0060507090B0D0F11130027
:1033B000596310BD996310BDD96310BD196410BD68
:1033C000516310BD916310BDD16310BD116410BD78
:1033D000E003002050030020FEE70020AFF3008050
:1033E00070B506465FF0000404F1B000C0B200F012
:1033F000C1FF002000F0BEFF102000F0BBFF002541
:10340000304600F0C9FF6D1CEDB2802DF8D3641C6E
:10341000E4B2082CE8D370BD10B56420FDF788FB3A
:10342000AE2000F0A7FF202000F0A4FF102000F045
:10343000A1FFB02000F09EFFC82000F09BFF0020FD
:1034400000F098FF102000F095FF402000F092FF60
:10345000812000F08FFFFF2000F08CFFA12000F002
:1034600089FFA62000F086FFA82000F083FF3F2000
:1034700000F080FFA42000F07DFFD32000F07AFF51
:10348000002000F077FFD52000F074FFF02000F05E
:1034900071FFD92000F06EFF222000F06BFFDA20D0
:1034A00000F068FF122000F065FFDB2000F062FFF3
:1034B000202000F05FFF8D2000F05CFF142000F062
:1034C00059FFBDE81040AF2000F054BF10B50446CE
:1034D000B031C8B200F04EFF102040EA141000F0E6
:1034E00049FF04F00F00BDE8104040F0010000F07B
:1034F00041BF00002DE9F047002591468A46044669
:10350000012B22D0DFF8BC80022B24D155E02038DB
:10351000C7B27E2C04D90AF10100002400F0FF0A92
:1035200051462046FFF7D2FF07EB4700002608EB85
:103530004007B85D00F030FF761CF6B2062EF8D3D7
:10354000A41D6D1CE4B2EDB201E0DFF87C8019F837
:1035500005000028DBD1BDE8F0872038C7B2782C01
:1035600004D90AF10100002400F0FF0A5146204668
:10357000FFF7ACFF5FF0000606EB071118F801003B
:1035800000F00AFF761CF6B2082EF5D30AF101000E
:10359000C1B22046FFF79AFF5FF0000606EB071165
:1035A00001EB0800007A00F0F7FE761CF6B2082E58
:1035B000F4D308346D1CE4B2EDB219F8050000280C
:1035C000CBD1C8E7BC4A0008944800082DE9F04177
:1035D000DFF8A08098F80000012849D1264C274D3B
:1035E00094F90500B5F90010884209D002DA00F11B
:1035F000010001E0A0F10100607140B200F0B3F9F8
:103600001F4E94F90400B6F90010884209D002DA7E
:1036100000F1010001E0A0F10100207140B200F0D2
:1036200069FA184F94F90300B7F90010884209D0DD
:1036300002DA00F1010001E0A0F10100E07040B207
:1036400000F06FFA94F90300B7F9001088420FD127
:1036500094F90400B6F90010884209D194F90500E4
:10366000B5F90010884203D1002088F80000A0704E
:10367000BDE8F08102000020D800002010000020EA
:10368000140000200E0000201CB5002300938DF8CC
:103690000000000A8DF801008DF80210080A01935D
:1036A0008DF803008DF80420100A8DF805001846E7
:1036B00069460A5C401C1A44C0B2D3B20628F8D34B
:1036C0008DF80630552000F045FC132000F042FC38
:1036D000062000F03FFC9DF8000000F03BFC9DF848
:1036E000010000F037FC9DF8020000F033FC9DF86B
:1036F000030000F02FFC9DF8040000F02BFC9DF867
:10370000050000F027FC9DF8060000F023FCBB201C
:1037100000F020FC1CBD00002DE9F04704460078B5
:10372000552822D16078012600277D4D4FF4FA7884
:1037300013281AD2DFE800F01919191919191958A4
:103740000A1B98B7BBBFC3C7CBD2E900E079217A87
:1037500000280AD021B16E71FDF7AAF8714803E084
:103760006F71FDF7A5F870484670BDE8F0872079C5
:10377000E17841EA0020E881A079617941EA0020FE
:1037800000B2A8828046207AE17941EA002000B2A6
:1037900028828146A07A617A41EA002000B26882DC
:1037A000217BE27A42EA01216981A17B627B42EAC4
:1037B0000121A9816979012905D0AE7058EA090073
:1037C00010D0AE71D1E7FCF7A6FE58490860484614
:1037D000FCF7A1FE564908604046FCF79CFE55499F
:1037E0000860EBE7AF71C0E7E178207919B108B163
:1037F000AE7100E0AF716179A07929B110B1FCF729
:10380000D1FF01E0FCF7C6FFE179207A19B310B3CC
:103810004948AE716F710068C16821F02001C16034
:103820004648FEF77CFA00F0E9FD4046FDF780F9D6
:103830004248FEF72BFA012241493F48FEF7F6FEC7
:103840000621404800F0C2FFAF816F81AF822F8216
:103850006F826E71AF71607AA17A002885D009B14C
:10386000EE7182E7EF7180E7207AE87010B1AE71F7
:103870002E7114E0AF7128790128A3D12F48FEF7EB
:103880003BFAFCF78FFF304A26210020FCF772FF3D
:103890004046FDF74DF92948FEF7F8F92F71BDE8CC
:1038A000F047FCF777BF22460121284812E0224664
:1038B000022127480EE02246032126480AE022463C
:1038C00004211A4806E022460521194802E0194859
:1038D00022460621BDE8F04700F02ABF207AE179B0
:1038E00041EA00252846FCF724FE00221A4BFCF78B
:1038F000A3FD1A4AC2E90001194805701248E1798E
:1039000000F8241F217A41702FE7217AE279A0790B
:10391000BDE8F04742EA012109B2FFF739BD0000D6
:1039200000000020B0000020C00000207C09002022
:1039300048090020B0090020B80700200803002033
:10394000D7000020F000002028010020AC08002053
:10395000E00800201409002000408F40E80000200B
:10396000E0000020704770B50446604201B20D4689
:103970000120FFF70DFD29460220FFF709FD21B2C6
:103980000C460320FFF704FD2146BDE870400420EB
:10399000FFF7FEBC2DE9F14F484CB4F90000FCF7ED
:1039A000BAFD6FF00E0B5946FCF7C8FC444948625B
:1039B000B4F90200FCF7AFFD5946FCF7BFFC4149E2
:1039C0004862B4F90400FCF7A6FD5946FCF7B6FCC2
:1039D0003D4948623D4CB4F90000FCF79CFD594656
:1039E000FCF7ACFC3A4E3146FCF738FC394D6862C6
:1039F000B4F90200FCF78FFD5946FCF79FFC3146F5
:103A0000FCF72CFCDFF8D090C9F82400B4F90400CE
:103A1000FCF781FD5946FCF791FC3146FCF71EFC92
:103A2000DFF8B880C8F824002D4CB4F90000FCF78A
:103A300072FD5946FCF782FCDFF8A8A05146FCF75E
:103A40000DFC294E7062B4F90200FCF764FD594682
:103A5000FCF774FC5146FCF701FC244F7862B4F982
:103A60000400FCF758FD5946FCF768FC5146FCF78A
:103A7000F5FB1F4C60623046009900F0D1FEB06A41
:103A800028602846009900F0CBFE3846009900F0E7
:103A9000C7FEB96AC9F800104846009900F0C0FE98
:103AA0002046009900F0BCFEA16AC8F8001040460C
:103AB0000099BDE8F84F00F0B3BE000044000020BC
:103AC0001008002044080020780800204C00002046
:103AD0000000FA44AC080020E0080020140900208F
:103AE00054000020000034437C09002048090020D5
:103AF000B009002070B501B204460D460220FFF760
:103B000047FC604201B20C460120FFF741FC294608
:103B10000320FFF73DFC2146BDE870400420FFF77D
:103B200037BC70B501B204460D460520FFF730FCE6
:103B300029460820FFF72CFC604201B20C46062003
:103B4000FFF726FC2146BDE870400720FFF720BCA8
:103B50000148FDF7C9BE0000B002002010B5406A60
:103B60000021C187C186FDF7BDFE10BD7047FDF77E
:103B7000B1BB30B58FB028216846FCF70CFB14218F
:103B80000AA8FCF708FB01210804CDE90010002475
:103B9000029402250491CDE907504FF4E0100990FA
:103BA0006846FDF70FFD08B172B6FEE70F20CDE9BC
:103BB0000A054FF48060CDE90C4002210AA80E945A
:103BC000FDF724FC002801D072B6FEE70FB030BD2F
:103BD0007047000070B52B48FEF728F92948FDF71B
:103BE000E1FF002843D0284C0025294E2078401CB6
:103BF000C0B220706178491C61702449097801299C
:103C00000AD0FFF7E3FC0621224800F0DFFD357003
:103C100060780A2811D011E01F4909788842F7D14D
:103C20001E492570D1E90001FCF7C2FCFFF7B2FE86
:103C3000FFF7D6F901203070EAE765701848007880
:103C4000012815D0FEF76CFF3078012813D0FEF75D
:103C500077FF14480078012810D0FEF781FF124842
:103C6000FCF7AAFD07496FF001000968086170BD03
:103C7000FEF75EFFE8E7FEF76BFFEAE7FEF778FF87
:103C8000EDE7000008030020D80000200500002018
:103C900016000020F0000020E0000020E8000020D6
:103CA000060000200700002094000020F0B5026804
:103CB000204C214D214E224F224B4FF0804CA042F0
:103CC00009D0984207D0604505D0A84203D0B04241
:103CD00001D0B84204D122F0700E4A6842EA0E02C6
:103CE000A04209D0984207D0604505D0A84203D031
:103CF000B04201D0B84203D122F44075CA682A43C9
:103D00004D6922F080022A4302608A68C2620A6812
:103D10008262A04201D0984201D109690163012168
:103D200041610169C90703D0016921F00101016105
:103D3000F0BD0000002C01400004004000080040DD
:103D4000000C00400034014010B501F01F030121B8
:103D5000046A99408C430462016A9A4011430162EB
:103D600010BD10B5846842EA032224F47F440A435C
:103D70002243826010BD826822F070020A4342F042
:103D80000701816070470000F0B5036A026A22F003
:103D90000102026242688469124E24F073050C68C5
:103DA0002C4323F002058B682B430D4DA84201D014
:103DB000B04205D123F00807CB683B4323F004034E
:103DC000A84201D0B04205D14D6922F4407215439A
:103DD0008A692A4342608461496841630362F0BD95
:103DE000002C014000340140F0B5026A036A23F060
:103DF00010030362436884690D6824F4E64444EACE
:103E000005248D6822F0200242EA05120F4D104E63
:103E1000A84201D0B04206D1CF6822F0800242EA27
:103E2000071222F04002A84201D0B04207D14D69EA
:103E300023F4406343EA85038D6943EA85034360C5
:103E40008461496881630262F0BD0000002C01407A
:103E500000340140F0B5026A036A23F48073036200
:103E60004368C46922F4007224F073050C68124E92
:103E70002C438D6842EA05220E4DA84201D0B04283
:103E800006D1CF6822F4006242EA072222F480625F
:103E9000A84201D0B04207D14D6923F4405343EA10
:103EA00005138D6943EA05134360C4614968C16322
:103EB0000262F0BD002C01400034014030B5046ABC
:103EC000026A22F4805202624268C3690D6823F4D8
:103ED000E64343EA05238D6824F4005444EA05349C
:103EE000084DA84202D0084DA84204D14D6922F4E1
:103EF000804242EA85124260C361496801640462FB
:103F000030BD0000002C01400034014010B5036AB0
:103F1000046A24F001040462846924F0F00444EA91
:103F2000021423F00A020A438461026210BD10B534
:103F3000036A046A24F010040462846923F0A00375
:103F400024F4704444EA023243EA011182610162BE
:103F500010BD0000074A064B11785854491C03F560
:103F6000527011700068C16841F08001C1607047F3
:103F700028040020D3000020074A064B51785854EB
:103F8000491C03F5247051700068C16841F080013C
:103F9000C160704728050020D300002070B510488C
:103FA000FEF742F90E4C2068C068000617D50E4D8A
:103FB0000C480122297801442046FEF771FB28783D
:103FC0000A49401CC0B228700978884204D1206890
:103FD000C16821F08001C16021680548086070BD9A
:103FE0002807002028060020D2000020D50000204D
:103FF0007FFFFFEF10B5406A0021C185C184FEF745
:1040000012F910BD01680C3151E8002F22F49072B2
:1040100041E80023002BF5D10168143151E8002F4D
:1040200022F0010241E80023002BF5D1016B0129A8
:1040300009D101680C3151E8002F22F0100241E84B
:104040000023002BF5D1202180F8421000210163CC
:10405000704708B590F84210222901D0022008BD0F
:1040600082684FF480539A4201D1016921B1816A7B
:104070009A421BD04AB10AE00268816A5268C2F3D0
:1040800008020A80816A891C08E0026972B102682C
:10409000526802F07F020A70816A491C8162C18DF8
:1040A000491E0904090CC18503D01BE0026852684F
:1040B000F1E70168CA6822F02002CA600168CA6894
:1040C00022F48072CA6001684A6922F001024A61E2
:1040D000202180F8421000214163026B012A03D0A5
:1040E000FEF7B2FA002008BD016301680C3151E807
:1040F000002F22F0100241E80023002BF5D10168C7
:104100000A68D20602D50A6849680091818DFEF7D7
:1041100089F8E7E770B5044600680169E26821F4B0
:104120004051114301612169A06808436169084356
:104130002168CA6841F20C639A430243CA6020684E
:104140004169A26921F44071114341611E4920680F
:10415000884202D1FDF700FA01E0FDF7EDF900EB2E
:10416000C00101EB0012606864218000B2FBF0F333
:10417000B3FBF1F36FF018067343B2FBF0F5B2FB3B
:10418000F0F605EB8305322303EB0515B5FBF1F5DE
:10419000B6FBF1F605F0F00505EB0615B2FBF0F6FF
:1041A000B2FBF0F0B0FBF1F06FF01802504306EBF9
:1041B000800003EB0010B0FBF1F0216800F00F006D
:1041C0002844886070BD000000380140816282850B
:1041D000C28500214164222180F84210016921B189
:1041E0000168CA6842F48072CA6001684A6942F094
:1041F00001024A610068C16841F02001C1600020ED
:104200007047000070B51048FEF70EF80E4C20689D
:10421000C068000617D50E4D0C48012229780144CC
:104220002046FEF73DFA28780A49401CC0B22870A3
:104230000978884204D12068C16821F08001C160FA
:1042400021680548086070BD700700202804002020
:10425000D0000020D30000207FFFFFEF70B5104892
:10426000FDF7E2FF0E4C2068C068000617D50E4D22
:104270000C480122297801442046FEF711FA2878DB
:104280000A49401CC0B228700978884204D12068CD
:10429000C16821F08001C16021680548086070BDD7
:1042A000B807002028050020D1000020D4000020FD
:1042B0007FFFFFEFF0B52C4900222C4B4F780126F1
:1042C000BFB1012F1DD00C4625786C1CE4B2022F23
:1042D0003AD0032F0CD158550C70487A844207D33A
:1042E000184410F8010CBB2802D10E720A704A70F3
:1042F000F0BD552801D01A70F0BD552018704E70D1
:10430000F0BD01281BD0072819D0082817D009288C
:1043100015D0102813D0112811D012280FD00A2838
:104320000DD00B280BD00C2809D00D2807D00E2853
:1043300005D00F2803D04A701A705A70F0BD58701B
:10434000022048700870F0BD461DF6B24E72142E61
:1043500005D30A704A701A705A704A72F0BD5855E7
:104360000C7003204870F0BD000000204E010020BA
:10437000FEE7000001B584B00121642204A88DE8A5
:1043800007000B46002278210248FCF7DDFE05B04D
:1043900000BD00005C02002001B584B00121642250
:1043A00004A88DE807000B46402278210248FCF75C
:1043B000CBFE05B000BD00005C0200200907090E1D
:1043C000002804DB00F1E02080F80014704700F0C2
:1043D0000F0000F1E02080F8141D704702E008C8CB
:1043E000121F08C1002AFAD170477047002001E06F
:1043F00001C1121F002AFBD17047000010B51248FE
:1044000000F03DFAC820FCF793FB0F480F3000F096
:1044100036FAC820FCF78CFB0B48143000F02FFA5A
:10442000C820FCF785FB0848193000F028FAC8209E
:10443000FCF77EFB04481E3000F021FABDE8104076
:10444000C820FCF775BB00001900002010B5194802
:1044500000F015FAC820FCF76BFB1648401D00F071
:104460000EFAC820FCF764FB12480A3000F007FA85
:10447000C820FCF75DFB0F480F3000F000FAC820A1
:10448000FCF756FB0B48143000F0F9F9C820FCF794
:104490004FFB0848193000F0F2F9C820FCF748FB40
:1044A00004481E3000F0EBF9BDE81040C820FCF7CE
:1044B0003FBB000019000020FCF714FFFFF759FB79
:1044C000FEF75EFBFEF722FCFEF7D0FCFEF782FC57
:1044D000FEF7E8FBFEF72EFDFEF748FDFEF762FD56
:1044E000FEF7A2FBFEF7C0FB08214E48FDF728FEB1
:1044F00000214D48FDF724FE04214B48FDF720FE26
:1045000008214948FDF71CFE0C214748FDF718FE1D
:1045100000214648FDF714FE04214448FDF710FE33
:1045200008214248FDF70CFE0C214048FDF708FE2B
:10453000FEF7F6FAFEF704FBFEF712FBFCF72AF98A
:10454000FEF76AFFFEF749FF022339A219462D2024
:10455000FEF7D0FF4FF47A742046FCF7E9FAFFF734
:1045600075FF2046FCF7E4FAFEF737FF022332A27C
:1045700019461820FEF7BEFFFEF7EEFEFEF72DFFF0
:10458000022330A219461A20FEF7B4FF6410204619
:10459000FCF7CEFAFEF721FF02232DA219462020B8
:1045A000FEF7A8FF02232DA204212420FEF7A2FF7C
:1045B0002C4A26210020FCF7CDF82A492A4800F091
:1045C00067F80621284800F001F92046FCF7B0FA08
:1045D000FEF703FF022325A219461C20FEF78AFFDF
:1045E0002548FDF753FBFCF763F924490120487087
:1045F000024623492348FEF719F80122224923489D
:10460000FEF714F8FEF786FA0028FBD0FCF7CAF98B
:104610000446FCF7CDF92146FFF77EF8FCF75CF97C
:10462000F0E7000098030020E00300205003002082
:1046300052204F20560000004A593930312D496E22
:10464000697400004D6F746F722D496E69740000BB
:10465000506964506172616D000000004C6F6164CC
:10466000696E670028010020F000002042204520EC
:10467000472049204E00000008030020A000002031
:10468000D600002070070020D7000020B8070020C7
:104690002DE9F047DFF88C900D460646002400BF58
:1046A00004EB440105EB410015F8111042788378C2
:1046B00041EA0221C27843EA02274279007940EABE
:1046C00002280846FBF730FF4946FBF7F9FD56F88C
:1046D000241008613846FBF727FF4946FBF7F0FD39
:1046E00056F8241048614046FBF71EFF4946FBF789
:1046F000E7FD56F824108861641CE4B2062CCFD381
:1047000095F8250095F8241041EA0020FBF711FFE9
:104710000022054BFBF790FE044AC2E90201BDE806
:10472000F087000000401C4600408F40E000002061
:104730002DE9F74F054622481446007801283CD160
:104740002079E17841EA002BA079617941EA0029DA
:10475000207AE17941EA002A5846FBF7E5FEDFF8C6
:1047600064804146FBF7ACFD07464846FBF7DCFE9C
:104770004146FBF7A5FD06465046FBF7D5FE4146F0
:10478000FBF79EFD2F616E61A86101980E4A401EE5
:1047900000EB40004006010E0320235C5354491CEB
:1047A000401CC0B2C9B20828F7D903B052464946E6
:1047B0005846BDE8F04FFEF767BFBDE8FE8F00002A
:1047C0000300002000401C462801002010B50022F4
:1047D000134613E050F82240236050F822406362F1
:1047E00050F82240E36050F82240A36050F8224085
:1047F000A36250F822406360521CD2B28A42E9D3CD
:10480000064C0022044BD4E90201FBF7A3FDFBF7A1
:10481000B6FE207010BD000000408F40E000002078
:104820002DE9F0410E46416A04460068FBF710FD91
:1048300005463146FBF712FDE168FBF7B7FCE06087
:10484000A1682846FBF704FD3146FBF739FD014618
:10485000A069FBF703FDE16807466069FBF7FEFC12
:10486000064620692946FBF7F9FC3146FBF79EFC1A
:104870003946FBF79BFCA062A560BDE8F08170B5EE
:1048800005460024285DFFF777FB641CE4B2052C85
:10489000F8D370BD0000000000000000002F0000F1
:1048A00000000700070000147F147F1400242A7FF3
:1048B0002A12006264081323003649552250000072
:1048C0000503000000001C224100000041221C00E2
:1048D0000014083E08140008083E0808000000A064
:1048E0006000000808080808000060600000002060
:1048F00010080402003E5149453E0000427F40003E
:10490000004261514946002141454B3100181412C3
:104910007F10002745454539003C4A494930000190
:104920007109050300364949493600064949291EDF
:104930000000363600000000563600000008142241
:104940004100001414141414000041221408000241
:104950000151090600324959513E007C1211127C66
:10496000007F49494936003E41414122007F414193
:10497000221C007F49494941007F09090901003E85
:104980004149497A007F0808087F0000417F4100C3
:10499000002040413F01007F08142241007F404039
:1049A0004040007F020C027F007F0408107F003E21
:1049B0004141413E007F09090906003E4151215E07
:1049C000007F091929460046494949310001017F04
:1049D0000101003F4040403F001F2040201F003F9A
:1049E0004038403F0063140814630007087008074C
:1049F00000615149454300007F41410000552A555F
:104A00002A55000041417F000004020102040040D9
:104A100040404040000001020400002054545478FB
:104A2000007F48444438003844444420003844441B
:104A3000487F00385454541800087E0901020018B9
:104A4000A4A4A47C007F080404780000447D4000F6
:104A5000004080847D00007F102844000000417FDA
:104A60004000007C04180478007C080404780038B6
:104A70004444443800FC242424180018242418FC3E
:104A8000007C0804040800485454542000043F44A7
:104A90004020003C4040207C001C2040201C003C6A
:104AA0004030403C004428102844001CA0A0A07CBA
:104AB000004464544C4414141414141400000000F2
:104AC000000000000000000000000000000000F8EE
:104AD00000000000000000333000000000100C0651
:104AE000100C0600000000000000000040C07840EC
:104AF000C0784000043F04043F040400007088FCB8
:104B000008300000001820FF211E0000F008F0000F
:104B1000E018000000211C031E211E0000F0088880
:104B2000700000001E2123241927211010160E00EA
:104B3000000000000000000000000000000000E095
:104B400018040200000000071820400000020418AA
:104B5000E00000000040201807000000404080F006
:104B6000804040000202010F01020200000000F03C
:104B7000000000000101011F010101000000000010
:104B80000000000080B07000000000000000000085
:104B9000000000000001010101010101000000000E
:104BA00000000000003030000000000000000000A5
:104BB00080601804006018060100000000E0100882
:104BC0000810E000000F102020100F00001010F857
:104BD000000000000020203F202000000070080896
:104BE0000888700000302824222130000030088816
:104BF000884830000018202020110E000000C0203E
:104C000010F8000000070424243F240000F808885E
:104C1000880808000019212020110E0000E01088EB
:104C200088180000000F112020110E00003808081D
:104C3000C83808000000003F00000000007088082D
:104C400008887000001C222121221C0000E01008AE
:104C50000810E0000000312222110F00000000C007
:104C6000C0000000000000303000000000000080A4
:104C70000000000000008060000000000000804094
:104C800020100800000102040810200040404040AD
:104C90004040400004040404040404000008102000
:104CA0004080000000201008040201000070480845
:104CB0000808F0000000003036010000C030C828AD
:104CC000E810E0000718272423140B000000C03868
:104CD000E0000000203C23020227382008F88888E2
:104CE00088700000203F202020110E00C0300808EE
:104CF00008083800071820202010080008F80808C5
:104D00000810E000203F202020100F0008F88888BD
:104D1000E8081000203F20202320180008F8888889
:104D2000E8081000203F200003000000C030080801
:104D30000838000007182020221E020008F808008A
:104D40000008F808203F210101213F20000808F851
:104D5000080800000020203F202000000000080874
:104D6000F8080800C08080807F00000008F888C034
:104D700028180800203F20012638200008F80800E5
:104D800000000000203F20202020300008F8F8001C
:104D9000F8F80800203F003F003F200008F830C02E
:104DA0000008F808203F200007183F00E01008081E
:104DB0000810E0000F10202020100F0008F808084D
:104DC0000808F000203F210101010000E010080860
:104DD0000810E0000F18242438504F0008F8888885
:104DE00088887000203F2000030C30200070880865
:104DF000080838000038202121221C00180808F873
:104E0000080818000000203F2000000008F80800F3
:104E10000008F808001F202020201F0008788800C4
:104E200000C83808000007380E010000F80800F834
:104E30000008F800033C0700073C030008186880DE
:104E40008068180820302C03032C30200838C80054
:104E5000C83808000000203F2000000010080808A3
:104E6000C83808002038262120201800000000FE45
:104E7000020202000000007F40404000000C30C0F1
:104E800000000000000000010638C000000202021D
:104E9000FE000000004040407F00000000000402CF
:104EA00002020400000000000000000000000000FA
:104EB00000000000808080808080808000020204EA
:104EC00000000000000000000000000000008080E2
:104ED000808000000019242222223F2008F8008050
:104EE00080000000003F112020110E000000008013
:104EF00080800000000E11202020110000000080A2
:104F00008088F800000E112020103F2000008080D3
:104F100080800000001F222222221300008080F0E7
:104F2000888888180020203F202000000000808012
:104F300080808000006B94949493600008F8008057
:104F400080800000203F210000203F2000809898B2
:104F5000000000000020203F202000000000008012
:104F60009898000000C08080807F000008F8000052
:104F700080808000203F24022D302000000808F8A7
:104F8000000000000020203F202000008080808062
:104F900080808000203F20003F20003F80800080F4
:104FA00080800000203F210000203F200000808002
:104FB00080800000001F202020201F0080800080B3
:104FC0008000000080FFA12020110E000000008062
:104FD00080808000000E112020A0FF808080800053
:104FE0008080800020203F21200001000000808080
:104FF000808080000033242424241900008080E075
:10500000808000000000001F202000008080000041
:1050100000808000001F202020103F208080800022
:105020000080808000010E30080601008080008032
:10503000008080800F300C030C300F000080800057
:10504000808080000020312E0E3120008080800082
:105050000080808080818E70180601000080808032
:10506000808080000021302C2221300000000000D0
:10507000807C020200000000003F40400000000071
:10508000FF00000000000000FF0000000002027CA2
:10509000800000000040403F0000000000060101C9
:1050A00002020404000000000000000001020203EC
:1050B0000405060708090A0B0C0D0E0F101000005E
:1050C00000000000000001020304060708090000B8
:1050D0000000010203040000F85000080000002056
:1050E00028010000DC4300082052000828010020AD
:1050F000900D0000EC4300080000000000010000DB
:10510000000000000000000000000000000000009F
:1051100000FFAA6988B5FFAA240100FFAA030B00BB
:10512000FFAA010100FFAA010800FFAA010400FF75
:10513000AA000000000000000000000000000000C5
:10514000000000000000000000000000000000005F
:10515000000000000000000000000000000000004F
:10516000000000000000000000000000000000003F
:10517000000000000000000000000000000000002F
:10518000000000000000000000000000A00000205F
:10519000B0000020C0000020010000000A00000054
:1051A000050000000600000002000000C80000002A
:1051B0000000000001000000030000000A000000E1
:1051C00005000000060000000000000000000000D4
:1051D00000000000000000000000000000000000CF
:1051E000000000E04D62503FAC080020E0080020C5
:1051F000140900207C09002048090020B009002083
:10520000E4090020180A00204C0A0020800A00202F
:1052100001000000100000000000000000127A00F1
:0400000508000131BD
:00000001FF
